:03000000020006F5
:03005F0002000399
:0300030002007B7D
:20006200AF8210990280FB8F992210980280FB859982120062859982227E0C7F0075FFDE87
:2000820075FFADC007C00612026E120218120285758400741CC0E07409C0E07480C0E0127D
:2000A20003011581158115817421C0E07409C0E07480C0E0120301158115811581742CC05A
:2000C200E07409C0E07480C0E01203011581158115817456C0E07409C0E07480C0E0120385
:2000E200011581158115817472C0E07409C0E07480C0E0120301158115811581D006D0077F
:20010200C007C006747BC0E07409C0E07480C0E012030115811581158112006CAD82C005C6
:20012200747FC0E07409C0E07480C0E0120301158115811581D0058D037C008B828C83C0E4
:20014200051202A9E5828583F0D005D006D00745F06072C007C006C005C006C0077484C05C
:20016200E07409C0E07480C0E0120301E58124FBF581D005D006D007C3EE9419EF64809494
:200182008050050EBE00010F8D037C00C007C006C003C004748FC0E07409C0E07480C0E038
:2001A200120301E58124FBF581747BC0E07409C0E07480C0E0120301158115811581D0063E
:2001C200D007020102C007C006C00574CAC0E07409C0E07480C0E012030115811581158188
:2001E2007C00C00474D2C0E07409C0E07480C0E0120301E58124FBF581747BC0E07409C049
:20020200E07480C0E0120301158115811581D006D00702010222AF8475840F758C677D009C
:200222007E011DBDFF011EED4E70F7E58C30E7FB759701758A0075840F758904758400759C
:20024200B71075840F438901758D04758F01758E097D007E011DBDFF011EED4E70F7438987
:2002620002E58930E4FB7597028F8422AF8475840F75E10475E20075E34043A40143A54026
:200282008F8422AF8475840053890F438920758DE5438E10858D8BD28E7584007598507594
:0702A2009110D2998F842214
:20091C001B5B324A001B5B303B34343B33336D001B5B323B33304854797065203C4553430B
:20093C003E20746F20656E64207468652070726F6772616D0A0A0A0A0D00546865206B6544
:20095C0079626F617264206368617261637465722069733A20001B5B31323B323572001BCF
:20097C005B48001B5B326B001B5B25693B343048200A00546865206B6579626F61726420DE
:20099C006368617261637465722025782069731B5B343B356D206E6F74207072696E74612F
:1E09BC00626C651B5B303B34343B33336D001B5B363B323848001B5B33376D25630025
:06003500E478FFF6D8FD9F
:200013007900E94400601B7A009009E5780175A200E493F2A308B8000205A2D9F4DAF275A1
:02003300A2FF2A
:20003B007800E84400600A790175A200E4F309D8FC7800E84400600C7900900001E4F0A3C1
:04005B00D8FCD9FAFA
:2002A900AE82AF83C3EE9420EF6480948092004011C3747E9E74808FF063F08095F09200F4
:1402C9005004C2008002D200A200E433FE7F008E828F83223D
:2002DD00C009858109120062D0092285823185833285F033E4F52EF52FF5308508349002FD
:2002FD00DD0203D8C009858109E50924FBFF8F34E4F52EF52FF530E50924FBF886310886E6
:0D031D00320886339002DD1203D8D0092289
:20032A00AF82C024C025C0261203378007C022C0238F8222158115811581052CE4B52C024E
:20034A00052D22AF8274302FFF24C6500A74072FFF3001034307208F8202032AE582FFC447
:20036A00540FF582C00712034DD007740F5FF58202034D85820A85270B85280C85290D852D
:20038A002A0EAA2B750F20EA2AFAE50E235401FF8A064EFAE50B250BF50BE50C33F50CE528
:2003AA000D33F50DE50E33F50EC3EA950A4008EAC3950AFA430B01E50F14FF8F0F70C8853D
:2003CA000B27850C28850D29850E2A8A2B22858222858323852E24852F25853026E4F52CF5
:2003EA00F52DAD31AE32AF338D828E838FF01208FCFC74012DF531E43EF5328F33ECFF7052
:20040A00030208DDBF250280030208D5C202C203C204C205C206C207C208C2097535007545
:20042A0036007537FFAA31AB32AE338A828B838EF01208FCFFA3AA82AB838A318B328E3355
:20044A00BF25078F8212032A8098BF3000402DEF24C6402874FFB53712E53675F00AA42FD4
:20046A00FC24D0F53670C4D20380C0E53775F00AA4FC8F05ED2C24D0F53780AFBF2E0A747C
:20048A00FFB537A775370080A2BF6100400CEF248540075307DFD2018002C201BF200280F5
:2004AA006DBF2B028063BF2D028059BF42028063BF43028068BF440302067BBF46030206C4
:2004CA0091BF4803020435BF490302067BBF4A03020435BF4C028040BF4F03020682BF50F0
:2004EA0003020610BF5302805ABF5403020435BF5503020687BF580302068CBF5A03020422
:20050A0035020695D202020435D204020435D205020435D207020435D20802043530070A63
:20052A00E53414F9893487078011E53424FEFE8E348E018705098706198D078F8212032A06
:20054A0002069EE53424FDFE8E348E01870409870509870619198C278D288E298C828D833D
:20056A008EF01208E4AD82AE8374FFB537028D37200226C3ED95365020E536C39DF536AEE9
:20058A00368E041EEC6010758220C006C00512032AD005D00680EA8E36AE37852782852895
:2005AA00838529F01208FCFCFF602F8E041EC374808CF063F08095F050208F82C006C00529
:2005CA0012032AD005D006AA27AB28AC290ABA00010B8A278B288C2980C120020302069EB9
:2005EA00C3ED9536400302069EE536C39DF536AE368E041EEC700302069C758220C0061261
:20060A00032AD00680EBE53424FDFC8C348C01870209870309870419198A278B288C29AC38
:20062A0029BC800040047F438014BC600040047F50800BBC400040047F4980027F588F8285
:20064A00C00712032A75823A12032A75823012032A75827812032AD007BF4902800BBF508B
:20066A000280068528821203668527821203668023D20675350A801C753508801775350ACD
:20068A008012753510800DD20980098F8212032A80028E3630095CE53424FCFE8E348E0160
:2006AA0087020987030987040987061919198A278B288C298E2A7527DA752809752980850F
:2006CA00273985283A85293B74012539FAE4353AFCAE3B8A278C288E29853982853A8385B8
:2006EA003BF01208FCFEFF70030203EC8F8212032A80CCE53570030203EC75381530072D0E
:20070A00E53414F9893487048C027B007C007E008A278B288C298E2A200666AA277B007C39
:20072A00007E008A278B288C298E2A8054300821E53424FCFE8E348E0187020987030987FF
:20074A00040987061919198A278B288C298E2A8030E53424FEFE8E348E0187040987061965
:20076A00EE3395E0FBFA8C278E288B298A2A200610AA27AB287C007E008A278B288C298E98
:20078A002A300622E52A30E71BC3E49527FAE49528FBE49529FCE4952AFE8A278B288C293B
:2007AA008E2A8002C206D20AA9387E00752B00853582C006C00112037DD001D006200A0B21
:2007CA00E52BC4FCE7FB4CF7198002A72B0EB20AE52745284529452A70D289388E05E536DC
:2007EA007003753601200324200221ED04FEAC36C3EE9C5015758220C006C005C004120348
:20080A002AD004D005D0061C80E68C3630060E75822DC00512032AD00515368023ED602045
:20082A0030040E75822BC00512032AD0051536800F30050C758220C00512032AD00515361B
:20084A00200226AE368E041EC3ED9C502F3003067B307C0080047B207C008B82C006C00554
:20086A0012032AD005D00680DCC3ED95365008E536C39DF536800775360080028E36A93856
:20088A008D068E051EED6026B20A200A0A09E7C4540FFD8D2B80078705740F5DF52B852B18
:2008AA0082C006C00112034DD001D00680D42002030203ECAE368E051EED70030203EC7557
:1A08CA008220C00612032AD00680EB8F8212032A0203EC852C82852D832261
:0B09DA003C4E4F20464C4F41543E0065
:1808E400AA82AB831208FC6003A380F8C3E5829AF582E5839BF5832236
:0D00060075813B120918E5826003020003BA
:1C08FC0020F71430F6148883A88220F507E6A88375830022E280F7E49322E0220B
:0409180075820022C2
:00000001FF
