:03000000020006F5
:03005F0002000399
:0300030002007B7D
:20006200AF8210990280FB8F992210980280FB8599821200628599822275FFDE75FFAD125D
:2000820002EC120296120309758400A290E433FFA291E433FEA292E433FDA293E433FCC0CF
:2000A20007C006C005C004746CC0E07409C0E07480C0E0120351158115811581D004D005E6
:2000C200D006D007A290E433FB8F02B50221A291E433FB8E02B50217A292E433FB8D02B597
:2000E200020DA293E433FB8C02B5020302026D7470C0E07409C0E07480C0E01203511581BE
:2001020015811581309019D2A07475C0E07409C0E07480C0E012035115811581158180176D
:20012200C2A07482C0E07409C0E07480C0E0120351158115811581A290E433FFC007748EDB
:20014200C0E07409C0E07480C0E0120351158115811581D00730911DD2A1C0077491C0E090
:200162007409C0E07480C0E0120351158115811581D007801BC2A1C007749EC0E07409C019
:20018200E07480C0E0120351158115811581D007A291E433FEC007C006748EC0E07409C036
:2001A200E07480C0E0120351158115811581D006D007309221D2A2C007C00674AAC0E074DE
:2001C20009C0E07480C0E0120351158115811581D006D007801FC2A2C007C00674B7C0E0B0
:2001E2007409C0E07480C0E0120351158115811581D006D007A292E433FDC007C006C005DD
:20020200748EC0E07409C0E07480C0E0120351158115811581D005D006D007309325D2A382
:20022200C007C006C00574C3C0E07409C0E07480C0E0120351158115811581D005D006D03F
:20024200078023C2A3C007C006C00574D0C0E07409C0E07480C0E01203511581158115817E
:20026200D005D006D007A293E433FCC007C006C005C004746CC0E07409C0E07480C0E01259
:200282000351158115811581D004D005D006D0070200A122AF8475840F758C677D007E018C
:2002A2001DBDFF011EED4E70F7E58C30E7FB759701758A0075840F75890475840075B710D4
:2002C20075840F438901758D04758F01758E097D007E011DBDFF011EED4E70F7438902E5E7
:2002E2008930E4FB7597028F8422AF8475840F75E10475E20075E34043A40153A5F04390FA
:200302000F43A60F8F8422AF8475840053890F438920758DE5438E10858D8BD28E758400DE
:0B032200759850759110D2998F8422BD
:20096C001B5B48001B5B324A004C4544302069732048494748004C454430206973204C4FBE
:20098C0057000A0D004C4544312069732048494748004C454431206973204C4F57004C45F6
:2009AC0044322069732048494748004C454432206973204C4F57004C4544332069732048F8
:1009CC00494748004C454433206973204C4F57002D
:06003500E478FFF6D8FD9F
:200013007900E94400601B7A009009E7780175A200E493F2A308B8000205A2D9F4DAF2759F
:02003300A2FF2A
:20003B007800E84400600A790175A200E4F309D8FC7800E84400600C7900900001E4F0A3C1
:04005B00D8FCD9FAFA
:20032D00C009858109120062D0092285823185833285F033E4F52EF52FF5308508349003AB
:20034D002D020428C009858109E50924FBFF8F34E4F52EF52FF530E50924FBF886310886F4
:0D036D003208863390032D120428D0092297
:20037A00AF82C024C025C0261203878007C022C0238F8222158115811581052CE4B52C02AE
:20039A00052D22AF8274302FFF24C6500A74072FFF3000034307208F8202037AE582FFC4A8
:2003BA00540FF582C00712039DD007740F5FF58202039D85820A85270B85280C85290D853D
:2003DA002A0EAA2B750F20EA2AFAE50E235401FF8A064EFAE50B250BF50BE50C33F50CE5D8
:2003FA000D33F50DE50E33F50EC3EA950A4008EAC3950AFA430B01E50F14FF8F0F70C885ED
:20041A000B27850C28850D29850E2A8A2B22858222858323852E24852F25853026E4F52CA4
:20043A00F52DAD31AE32AF338D828E838FF012094CFC74012DF531E43EF5328F33ECFF70B0
:20045A000302092DBF25028003020925C201C202C203C204C205C206C207C208753500755B
:20047A0036007537FFAA31AB32AE338A828B838EF012094CFFA3AA82AB838A318B328E33B4
:20049A00BF25078F8212037A8098BF3000402DEF24C6402874FFB53712E53675F00AA42F34
:2004BA00FC24D0F53670C4D20280C0E53775F00AA4FC8F05ED2C24D0F53780AFBF2E0A742D
:2004DA00FFB537A775370080A2BF6100400CEF248540075307DFD2008002C200BF200280A7
:2004FA006DBF2B028063BF2D028059BF42028063BF43028068BF44030206CBBF4603020624
:20051A00E1BF4803020485BF49030206CBBF4A03020485BF4C028040BF4F030206D2BF500F
:20053A0003020660BF5302805ABF5403020485BF55030206D7BF58030206DCBF5A03020491
:20055A00850206E5D201020485D203020485D204020485D206020485D20702048530060AE9
:20057A00E53414F9893487078011E53424FEFE8E348E018705098706198D078F8212037A66
:20059A000206EEE53424FDFE8E348E01870409870509870619198C278D288E298C828D839D
:2005BA008EF0120934AD82AE8374FFB537028D37200126C3ED95365020E536C39DF536AE49
:2005DA00368E041EEC6010758220C006C00512037AD005D00680EA8E36AE378527828528F5
:2005FA00838529F012094CFCFF602F8E041EC374808CF063F08095F050208F82C006C00588
:20061A0012037AD005D006AA27AB28AC290ABA00010B8A278B288C2980C12001030206EEC9
:20063A00C3ED953640030206EEE536C39DF536AE368E041EEC70030206EC758220C0061270
:20065A00037AD00680EBE53424FDFC8C348C01870209870309870419198A278B288C29AC98
:20067A0029BC800040047F438014BC600040047F50800BBC400040047F4980027F588F8235
:20069A00C00712037A75823A12037A75823012037A75827812037AD007BF4902800BBF50FB
:2006BA000280068528821203B68527821203B68023D20575350A801C753508801775350ADE
:2006DA008012753510800DD20880098F8212037A80028E3630085CE53424FCFE8E348E01C2
:2006FA0087020987030987040987061919198A278B288C298E2A7527DC75280975298085BD
:20071A00273985283A85293B74012539FAE4353AFCAE3B8A278C288E29853982853A838567
:20073A003BF012094CFEFF700302043C8F8212037A80CCE535700302043C75381530062D7B
:20075A00E53414F9893487048C027B007C007E008A278B288C298E2A200566AA277B007CEA
:20077A00007E008A278B288C298E2A8054300721E53424FCFE8E348E0187020987030987B0
:20079A00040987061919198A278B288C298E2A8030E53424FEFE8E348E0187040987061915
:2007BA00EE3395E0FBFA8C278E288B298A2A200510AA27AB287C007E008A278B288C298E49
:2007DA002A300522E52A30E71BC3E49527FAE49528FBE49529FCE4952AFE8A278B288C29EC
:2007FA008E2A8002C205D209A9387E00752B00853582C006C0011203CDD001D00620090B84
:20081A00E52BC4FCE7FB4CF7198002A72B0EB209E52745284529452A70D289388E05E5368C
:20083A007003753601200224200121ED04FEAC36C3EE9C5015758220C006C005C0041203F9
:20085A007AD004D005D0061C80E68C3630050E75822DC00512037AD00515368023ED602056
:20087A0030030E75822BC00512037AD0051536800F30040C758220C00512037AD00515362D
:20089A00200126AE368E041EC3ED9C502F3002067B307C0080047B207C008B82C006C00506
:2008BA0012037AD005D00680DCC3ED95365008E536C39DF536800775360080028E36A938B6
:2008DA008D068E051EED6026B20920090A09E7C4540FFD8D2B80078705740F5DF52B852BCA
:2008FA0082C006C00112039DD001D00680D420010302043CAE368E051EED700302043C7516
:1A091A008220C00612037AD00680EB8F8212037A02043C852C82852D83221F
:0B09DC003C4E4F20464C4F41543E0063
:18093400AA82AB8312094C6003A380F8C3E5829AF582E5839BF5832294
:0D00060075813B120968E58260030200036A
:1C094C0020F71430F6148883A88220F507E6A88375830022E280F7E49322E022BA
:040968007582002272
:00000001FF
